:02000000932F3C
:08000800FF00030E8312031335
:10001000B4000A0EB500040EB6008A110A12EA2FC7
:1000200000000000FA0B1028080083120313CF1FF2
:10003000DA28C615B908BA08B90A0319BA0AFB3092
:10004000831605058500FB30831205058316A20083
:1000500004302204831285000E303A02031D322838
:100060004C303902031C57288316A30183124D0814
:10007000003C03183D288316A30A8316A2018312AD
:100080004C08003C031846288316A20A831622084F
:10009000230403195728FB3005058500FB30831224
:1000A000050585001830D500CF13B901BA018316B4
:1000B000A101173083123A02D43003193902031C0C
:1000C00063288316A10A8316A001A00A8312CC0814
:1000D00003196C28831620108316200821050319A4
:1000E000DA28A401A40A8312CD08031979288316FB
:1000F00024108316A201A20A8312CC0803198228B5
:100100008316221083162208A405A301A30A8312D2
:10011000D10803198D28831623108316230824057C
:100120000319DA28FB3005058500FB30831205052D
:1001300085008316A601043083124B02031DA228FA
:100140008316A60A8316A501053083124B02031DF0
:10015000AB288316A50A8316250826040319CD2883
:10016000831250085306031DC0280530CD00CC0172
:100170001830D5000530CB00CF13B901BA01CB2818
:10018000CF16530850020318C7285611CB28500821
:100190005302031C56155610D9280A308312CD007D
:1001A000CC011830D5004B0ACB00CF13B901BA01EE
:1001B0005610CF138312561C0800BB08BC08BB0A9C
:1001C0000319BC0A8316A101A10A8312CD080319E1
:1001D000EB28831621108316A00183124C083B3CA8
:1001E000031CF4288316A00A83162008210503198E
:1001F0001A29003083123C02031D00297A303B0289
:10020000031C08005103D100510A031D17290930AE
:10021000D1004C03CC005503D5004C0A031D142912
:100220004D03CD003B30CC00D50803195610BB015F
:10023000BC010800043083123C02031D2129C43094
:100240003B02031C08004C03CC005503D5004C0AAC
:10025000031D2E294D03CD003B30CC00D5080319DA
:100260005610BB01BC010800EF30831603130505CF
:100270008500EF3083120505FA0010307A048500FE
:10028000EF30831605058500EF30831205058500E4
:100290000800831203134E08013A03196B29033A2D
:1002A00003197129013A03197729073A03197D299E
:1002B000013A03198329033A03198929013A0319D9
:1002C0008F290F3A03199529013A03199B29093AF5
:1002D0000319A129A72983168601063083128600F7
:1002E0000800831686015B3083128600080083169F
:1002F00086014F308312860008008316860166301F
:10030000831286000800831686016D3083128600F2
:100310000800831686017D3083128600080083164C
:1003200086010730831286000800831686017F301D
:10033000831286000800831686016F3083128600C0
:100340000800831686013F308312860008004E089D
:100350000A3A0319B229F53A0319B829F43A0319EC
:10036000BD290800831686017330831286000800B9
:1003700083168601831286010800831686015C308D
:1003800083128600080083120313DC0108305C022C
:100390000318EC2901304805FA00FB01FA08031D97
:1003A0007B1446127B08031D4616F730831605059D
:1003B00085008312461EE329F7300505FA00083050
:1003C0007A048500E629F730050585003421C80840
:1003D0000310C80CDC0AC629DD0108305D020318D1
:1003E000080001304905FA00FB01FA08031D7B14DF
:1003F00046127B08031D4616F73083160505850057
:100400008312461E0A2AF7300505FA0008307A04DE
:1004100085000D2AF730050585003421C908031031
:10042000C90CDD0AED29FE01FC01FD01FD190800E2
:100430000310FC0DF80DFE0D79087E02031C222A24
:10044000FE007C14FD0A162AFC01FE01FD01FD19C7
:1004500008000310FE0DFA0DFC0D7B087C02031C46
:10046000332AFC007E14FD0A272A83160313860113
:10047000831286011030C800C901C32101308316E0
:1004800005048500013083120505DE00DF015E03EF
:100490000319DF0ACF105F08031DCF140230831643
:1004A00005048500023083120505DE00DF010230FD
:1004B0005E020319DF0A4F125F08031D4F16CF18A3
:1004C000632A461408004610CF114F1A6A2A0130D9
:1004D000CA000800CA0146110800831603138601EA
:1004E000831286010830C800C901C3210130831678
:1004F00005048500013083120505DE00DF015E037F
:100500000319DF0ACF105F08031DCF1402308316D2
:1005100005048500023083120505DE00DF0102308C
:100520005E020319DF0A4F125F08031D4F16CF1832
:100530009B2A4F1408004F10C6134F1AA12AC61445
:100540000800C61008008316031386018312860173
:100550000430C800C901C321013083160504850099
:10056000013083120505DE00DF015E030319DF0A97
:10057000CF105F08031DCF140230831605048500D9
:10058000023083120505DE00DF0102305E0203192E
:10059000DF0A4F125F08031D4F16CF18D12A4F17DD
:1005A00008004F13C6124F1AD72AD6150800D611C5
:1005B0000800FF3083120313CE004921C3215808DD
:1005C000CE004921FA30FA001020080083120313EC
:1005D000DF014A030319DF0ADE01461DDE0A5E0859
:1005E0005F050319FC2A590AD90046155908083A2B
:1005F000031DFC2A0130D900E1014F18E10AE00196
:10060000C61FE00A6008610503190800C61C1C2B00
:10061000D6100130D900E301E30ACD08031D6310B1
:10062000E201E20ACC08031D6210620863050319A7
:10063000A12B0130CC00A12B5908013A0319332B0F
:10064000033A03193E2B013A0319552B073A0319B4
:10065000602B013A0319772B033A0319822B013AD5
:100660000319992BA12B0A304D07CD0064304D02A0
:10067000031CA12B64304D02CD00A12B4D08F800C6
:100680000A30F90013227E08093A031D522B4D0847
:10069000F8000A30F90013227E08D20052084D02F9
:1006A000CD00A12B4D0ACD00A12B0A304C07CC0068
:1006B0003C304C02031CA12B3C304C02CC00A12B43
:1006C0004C08F8000A30F90013227E08093A031D8D
:1006D000742B4C08F8000A30F90013227E08D2006F
:1006E00052084C02CC00A12B4C0ACC00A12B0A30A2
:1006F0005507D50064305502031CA12B6430550208
:10070000D500A12B5508F8000A30F90013227E0805
:10071000093A031D962B5508F8000A30F9001322F8
:100720007E08D20052085502D500A12B550AD500EB
:10073000A12B4B0ACB004B08063A031DA12B01301D
:10074000CB00C617080083120313DF01D619DF0A96
:10075000DE01561CDE0A5E085F050319C52BFB305F
:10076000831605058500FB3083120505E200043081
:1007700062048500E101C618E10AE001CF1AE00A2F
:1007800060086105031D4617CD2BFB308316050558
:100790008500FB30831205058500CF1A0800E101B2
:1007A0004618E10AE001CF1DE00A6008610503195F
:1007B000F52BC61CDE2B5303D300E02B530AD300CA
:1007C000E901C83053020318E90AE801FF30530277
:1007D000031CE80A680869050319F12BC730D30028
:1007E000F42B530A0319D301CF15E3014F1BE30A7E
:1007F000E201C61EE20A6208630503191B2CC61C2F
:10080000042C5003D000062C500AD000E901C83057
:1008100050020318E90AE801FF305002031CE80AFD
:10082000680869050319172CC730D0001A2C500A24
:100830000319D001C616E5014A030319E50AE401CC
:10084000461DE40A640865050319522CC61C3C2C9D
:10085000E901E90ACD08031D6910E8010E304C02D8
:10086000031CE80A680869050319392C4C08D500EF
:100870004F2C0E30D5004F2CE901E90ACD08031D9D
:100880006910E80118304C02031CE80A6808690581
:1008900003194D2C4C08D5004F2C1830D5004615A7
:1008A000BB01BC01E7014F18E70AE601C61FE60AD3
:1008B0006608670503190800C61C642C56186B2CC3
:1008C000D6140130D9006B2C561C682C5610692C9C
:1008D0005614BB01BC01C61708000A30831203136B
:1008E000CD00CC011830D500D301D0010130CB00B0
:1008F000D4015611CF1246135614CF13D610C61179
:10090000D6114F134610C610CA014F1056100130B1
:10091000D900080083120313E001E00ACD08031D8B
:100920006010DE01DE0ACC08031D5E105E08E005E3
:10093000DF01093051020319DF0A5F086005031D5A
:10094000D101E201E20ACD08031D6210E101550860
:100950004C02031CE10A610862050319B12C4C0822
:10096000D500E401E40AD508031D6410E301C61DA7
:10097000E30A6308640503190800CF17B901BA0137
:100980000800831203134808D7004908DA00540806
:10099000013A0319D22C033A0319D42C013A031952
:1009A000D62CD72CA322D72C6D22D72C3522540A33
:1009B000D40004305402031CDF2C0130D40057084B
:1009C000C8005A08C900080083120313CF1EEA2C7E
:1009D0000830D900470AC700DF014708143C031C50
:1009E000DF0ADE0159030319DE0A5E085F050319F9
:1009F000042D4708283C031CC701C8018030C900EA
:100A0000FF30D800D922342DF501D61CF50AF401A7
:100A1000F40ACD08031D74107408750503191B2D05
:100A2000C8018030C9004C08FA000A30FB002422BB
:100A30007E08D800252DC8018030C9004D08FA0075
:100A40000A30FB0024227E08D800F701F70AD808F4
:100A5000031D7710F601D61CF60A760877050319F0
:100A6000332DFF30D800D922E1014708143C031C84
:100A7000E10AE001023059020319E00A6008610549
:100A800003194D2D4708283C031CC701C8014030FD
:100A9000C900FF30D800D9226F2DF501D61CF50A08
:100AA000F401F40ACD08031D7410740875050319C8
:100AB000642DC8014030C9004C08F8000A30F90024
:100AC00013227E08D8006E2DC8014030C9004D08A1
:100AD000F8000A30F90013227E08D800D922E30179
:100AE0004708143C031CE30AE201033059020319CE
:100AF000E20A620863050319882D4708283C031C95
:100B0000C701C8012030C900FF30D800D922A52D67
:100B1000F501D61CF50AF401F40ACD08031D741082
:100B20007408750503199A2DC8012030C900FF30DB
:100B3000D800A42DC8012030C9004C08FA000A30A2
:100B4000FB0024227E08D800D922E5014708143C86
:100B5000031CE50AE401043059020319E40A64089D
:100B600065050319BE2D4708283C031CC701C801B1
:100B70001030C900FF30D800D922DB2DF501D61C7A
:100B8000F50AF401F40ACD08031D74107408750504
:100B90000319D02DC8011030C9005108D800DA2D32
:100BA000C8011030C9004C08F8000A30F9001322BF
:100BB0007E08D800D922E7014708143C031CE70A45
:100BC000E601053059020319E60A660867050319AC
:100BD000F42D4708283C031CC7011030C800C90188
:100BE000FF30D800D922292E1030C800C90155087D
:100BF000FA000A30FB0024227E08D800F501F50A2D
:100C0000D808031D7510F401D61CF40A7408750584
:100C100003190C2EFF30D800F901D61CF90AF60191
:100C2000F60ACD08031D76107608F905F70118308D
:100C30004C02031CF70A7708F905F8014C08550225
:100C40000318F80A780879050319282EFF30D80010
:100C5000D922E9014708143C031CE90AE8010630DF
:100C600059020319E80A680869050319422E470862
:100C7000283C031CC7010830C800C901FF30D80058
:100C8000D922692E0830C800C9015508F8000A3079
:100C9000F90013227E08D800F701D61CF70AF401E8
:100CA000F40ACD08031D74107408F705F501183017
:100CB0004C02031CF50A7508F705F6014C085502AD
:100CC0000318F60A760877050319682EFF30D80056
:100CD000D922EB014708143C031CEB0AEA01073058
:100CE00059020319EA0A6A086B050319822E47089C
:100CF000283C031CC7010430C800C901FF30D800DC
:100D0000D9228E2E0430C800C9014B08D8004B08E8
:100D1000053A031D8D2E0B30D800D922EF01CF1AD2
:100D2000EF0AEC01561DEC0A6C08EF05ED014708CF
:100D3000143C031CED0A6D08EF05EE010830590262
:100D40000319EE0A6E086F050319BD2E4708283CEB
:100D5000031CC701C8010830C900FF30D800D922E0
:100D6000C8010430C900FF30D800D922C8010230C0
:100D7000C900FF30D800D922F82EC8010830C900B8
:100D80005308FA006430FB0024227E08D800D808FB
:100D9000031DCC2EFF30D800D922C8010430C90071
:100DA0005308F8006430F90013227E08FA000A3074
:100DB000FB0024227E08D800F501F50AD808031D9F
:100DC0007510F40164305302031CF40A74087505AD
:100DD0000319EC2EFF30D800D922C8010230C90017
:100DE0005308F8000A30F90013227E08D800D922EF
:100DF000F301CF1AF30AF0015619F00A7008F3054F
:100E0000F1014708143C031CF10A7108F305F201D3
:100E1000083059020319F20A720873050319272FC3
:100E20004708283C031CC701C8010130C900FF3036
:100E3000D800D9228030C800C901FF30D800D9229B
:100E40004030C800C901FF30D800D9220800C801CD
:100E50000130C9005008FA006430FB0024227E08EB
:100E6000D800D808031D362FFF30D800D922803093
:100E7000C800C9015008F8006430F90013227E0848
:100E8000FA000A30FB0024227E08D800F501F50A9A
:100E9000D808031D7510F40164305002031CF40AD5
:100EA000740875050319562FFF30D800D922403039
:100EB000C800C9015008F8000A30F90013227E0862
:100EC000D800D92208000730831203139F00C030D6
:100ED000831681000B17831212109214121507301B
:100EE0001205DE0078305E0492000F308316920007
:100EF0008B178C146D24DB0164305B020318842F84
:100F0000E424C124DB0A7C2FD61C8A2FE424C124CC
:100F1000E622902F0830D900E424C124A3238A2498
:100F2000461B6D24842FD53083120313A000C430D8
:100F3000A100BB30A200DC30A300A401A501A601E2
:100F4000A701A801A901AA01AB01AC01AD01AE0145
:100F5000AF01C001C101B701B801C201C301C401A1
:100F6000C501B001B101B201B301BE01BF01BD01B4
:100F70004614C614C701FF30C8004611C6114612F8
:100F8000FF30C9000130CA000130CB00C6120A3060
:100F9000CD004613FF30CE00C6134F14CF144F11AF
:100FA000CF114F16D001CF12D101D2014F17D3016B
:100FB000D401CF131830D500BB01BC015610D61098
:100FC000D701FF30D800D9015611D615DA018A11A0
:100FD0000A12632F831203138C1CF32F83168C1CAD
:100FE000F32F15208C108312360E8400350E8A00E4
:0A0FF000340E8300FF0E7F0E09008F
:02400E000A1F87
:00000001FF
